{
  "_format": "hh-sol-artifact-1",
  "contractName": "MyNFT",
  "sourceName": "contracts/MyNFT.sol",
  "abi": [
    {
      "inputs": [],
      "stateMutability": "nonpayable",
      "type": "constructor"
    },
    {
      "inputs": [
        {
          "internalType": "address",
          "name": "sender",
          "type": "address"
        },
        {
          "internalType": "uint256",
          "name": "tokenId",
          "type": "uint256"
        },
        {
          "internalType": "address",
          "name": "owner",
          "type": "address"
        }
      ],
      "name": "ERC721IncorrectOwner",
      "type": "error"
    },
    {
      "inputs": [
        {
          "internalType": "address",
          "name": "operator",
          "type": "address"
        },
        {
          "internalType": "uint256",
          "name": "tokenId",
          "type": "uint256"
        }
      ],
      "name": "ERC721InsufficientApproval",
      "type": "error"
    },
    {
      "inputs": [
        {
          "internalType": "address",
          "name": "approver",
          "type": "address"
        }
      ],
      "name": "ERC721InvalidApprover",
      "type": "error"
    },
    {
      "inputs": [
        {
          "internalType": "address",
          "name": "operator",
          "type": "address"
        }
      ],
      "name": "ERC721InvalidOperator",
      "type": "error"
    },
    {
      "inputs": [
        {
          "internalType": "address",
          "name": "owner",
          "type": "address"
        }
      ],
      "name": "ERC721InvalidOwner",
      "type": "error"
    },
    {
      "inputs": [
        {
          "internalType": "address",
          "name": "receiver",
          "type": "address"
        }
      ],
      "name": "ERC721InvalidReceiver",
      "type": "error"
    },
    {
      "inputs": [
        {
          "internalType": "address",
          "name": "sender",
          "type": "address"
        }
      ],
      "name": "ERC721InvalidSender",
      "type": "error"
    },
    {
      "inputs": [
        {
          "internalType": "uint256",
          "name": "tokenId",
          "type": "uint256"
        }
      ],
      "name": "ERC721NonexistentToken",
      "type": "error"
    },
    {
      "inputs": [
        {
          "internalType": "address",
          "name": "owner",
          "type": "address"
        }
      ],
      "name": "OwnableInvalidOwner",
      "type": "error"
    },
    {
      "inputs": [
        {
          "internalType": "address",
          "name": "account",
          "type": "address"
        }
      ],
      "name": "OwnableUnauthorizedAccount",
      "type": "error"
    },
    {
      "anonymous": false,
      "inputs": [
        {
          "indexed": true,
          "internalType": "address",
          "name": "owner",
          "type": "address"
        },
        {
          "indexed": true,
          "internalType": "address",
          "name": "approved",
          "type": "address"
        },
        {
          "indexed": true,
          "internalType": "uint256",
          "name": "tokenId",
          "type": "uint256"
        }
      ],
      "name": "Approval",
      "type": "event"
    },
    {
      "anonymous": false,
      "inputs": [
        {
          "indexed": true,
          "internalType": "address",
          "name": "owner",
          "type": "address"
        },
        {
          "indexed": true,
          "internalType": "address",
          "name": "operator",
          "type": "address"
        },
        {
          "indexed": false,
          "internalType": "bool",
          "name": "approved",
          "type": "bool"
        }
      ],
      "name": "ApprovalForAll",
      "type": "event"
    },
    {
      "anonymous": false,
      "inputs": [
        {
          "indexed": true,
          "internalType": "address",
          "name": "previousOwner",
          "type": "address"
        },
        {
          "indexed": true,
          "internalType": "address",
          "name": "newOwner",
          "type": "address"
        }
      ],
      "name": "OwnershipTransferred",
      "type": "event"
    },
    {
      "anonymous": false,
      "inputs": [
        {
          "indexed": true,
          "internalType": "address",
          "name": "from",
          "type": "address"
        },
        {
          "indexed": true,
          "internalType": "address",
          "name": "to",
          "type": "address"
        },
        {
          "indexed": true,
          "internalType": "uint256",
          "name": "tokenId",
          "type": "uint256"
        }
      ],
      "name": "Transfer",
      "type": "event"
    },
    {
      "inputs": [
        {
          "internalType": "address",
          "name": "to",
          "type": "address"
        },
        {
          "internalType": "uint256",
          "name": "tokenId",
          "type": "uint256"
        }
      ],
      "name": "approve",
      "outputs": [],
      "stateMutability": "nonpayable",
      "type": "function"
    },
    {
      "inputs": [
        {
          "internalType": "address",
          "name": "owner",
          "type": "address"
        }
      ],
      "name": "balanceOf",
      "outputs": [
        {
          "internalType": "uint256",
          "name": "",
          "type": "uint256"
        }
      ],
      "stateMutability": "view",
      "type": "function"
    },
    {
      "inputs": [],
      "name": "createNFT",
      "outputs": [
        {
          "internalType": "uint256",
          "name": "",
          "type": "uint256"
        }
      ],
      "stateMutability": "nonpayable",
      "type": "function"
    },
    {
      "inputs": [
        {
          "internalType": "uint256",
          "name": "tokenId",
          "type": "uint256"
        }
      ],
      "name": "getApproved",
      "outputs": [
        {
          "internalType": "address",
          "name": "",
          "type": "address"
        }
      ],
      "stateMutability": "view",
      "type": "function"
    },
    {
      "inputs": [
        {
          "internalType": "address",
          "name": "owner",
          "type": "address"
        },
        {
          "internalType": "address",
          "name": "operator",
          "type": "address"
        }
      ],
      "name": "isApprovedForAll",
      "outputs": [
        {
          "internalType": "bool",
          "name": "",
          "type": "bool"
        }
      ],
      "stateMutability": "view",
      "type": "function"
    },
    {
      "inputs": [],
      "name": "name",
      "outputs": [
        {
          "internalType": "string",
          "name": "",
          "type": "string"
        }
      ],
      "stateMutability": "view",
      "type": "function"
    },
    {
      "inputs": [],
      "name": "owner",
      "outputs": [
        {
          "internalType": "address",
          "name": "",
          "type": "address"
        }
      ],
      "stateMutability": "view",
      "type": "function"
    },
    {
      "inputs": [
        {
          "internalType": "uint256",
          "name": "tokenId",
          "type": "uint256"
        }
      ],
      "name": "ownerOf",
      "outputs": [
        {
          "internalType": "address",
          "name": "",
          "type": "address"
        }
      ],
      "stateMutability": "view",
      "type": "function"
    },
    {
      "inputs": [],
      "name": "renounceOwnership",
      "outputs": [],
      "stateMutability": "nonpayable",
      "type": "function"
    },
    {
      "inputs": [
        {
          "internalType": "address",
          "name": "from",
          "type": "address"
        },
        {
          "internalType": "address",
          "name": "to",
          "type": "address"
        },
        {
          "internalType": "uint256",
          "name": "tokenId",
          "type": "uint256"
        }
      ],
      "name": "safeTransferFrom",
      "outputs": [],
      "stateMutability": "nonpayable",
      "type": "function"
    },
    {
      "inputs": [
        {
          "internalType": "address",
          "name": "from",
          "type": "address"
        },
        {
          "internalType": "address",
          "name": "to",
          "type": "address"
        },
        {
          "internalType": "uint256",
          "name": "tokenId",
          "type": "uint256"
        },
        {
          "internalType": "bytes",
          "name": "data",
          "type": "bytes"
        }
      ],
      "name": "safeTransferFrom",
      "outputs": [],
      "stateMutability": "nonpayable",
      "type": "function"
    },
    {
      "inputs": [
        {
          "internalType": "address",
          "name": "operator",
          "type": "address"
        },
        {
          "internalType": "bool",
          "name": "approved",
          "type": "bool"
        }
      ],
      "name": "setApprovalForAll",
      "outputs": [],
      "stateMutability": "nonpayable",
      "type": "function"
    },
    {
      "inputs": [
        {
          "internalType": "bytes4",
          "name": "interfaceId",
          "type": "bytes4"
        }
      ],
      "name": "supportsInterface",
      "outputs": [
        {
          "internalType": "bool",
          "name": "",
          "type": "bool"
        }
      ],
      "stateMutability": "view",
      "type": "function"
    },
    {
      "inputs": [],
      "name": "symbol",
      "outputs": [
        {
          "internalType": "string",
          "name": "",
          "type": "string"
        }
      ],
      "stateMutability": "view",
      "type": "function"
    },
    {
      "inputs": [
        {
          "internalType": "uint256",
          "name": "tokenId",
          "type": "uint256"
        }
      ],
      "name": "tokenURI",
      "outputs": [
        {
          "internalType": "string",
          "name": "",
          "type": "string"
        }
      ],
      "stateMutability": "view",
      "type": "function"
    },
    {
      "inputs": [
        {
          "internalType": "address",
          "name": "from",
          "type": "address"
        },
        {
          "internalType": "address",
          "name": "to",
          "type": "address"
        },
        {
          "internalType": "uint256",
          "name": "tokenId",
          "type": "uint256"
        }
      ],
      "name": "transferFrom",
      "outputs": [],
      "stateMutability": "nonpayable",
      "type": "function"
    },
    {
      "inputs": [
        {
          "internalType": "address",
          "name": "newOwner",
          "type": "address"
        }
      ],
      "name": "transferOwnership",
      "outputs": [],
      "stateMutability": "nonpayable",
      "type": "function"
    }
  ],
  "bytecode": "0x608060405234801561001057600080fd5b50336040518060400160405280600981526020017f4b4f444544204e465400000000000000000000000000000000000000000000008152506040518060400160405280600581526020017f4b444e4654000000000000000000000000000000000000000000000000000000815250816000908161008d9190610445565b50806001908161009d9190610445565b505050600073ffffffffffffffffffffffffffffffffffffffff168173ffffffffffffffffffffffffffffffffffffffff16036101125760006040517f1e4fbdf70000000000000000000000000000000000000000000000000000000081526004016101099190610558565b60405180910390fd5b6101218161012f60201b60201c565b506001600781905550610573565b6000600660009054906101000a900473ffffffffffffffffffffffffffffffffffffffff16905081600660006101000a81548173ffffffffffffffffffffffffffffffffffffffff021916908373ffffffffffffffffffffffffffffffffffffffff1602179055508173ffffffffffffffffffffffffffffffffffffffff168173ffffffffffffffffffffffffffffffffffffffff167f8be0079c531659141344cd1fd0a4f28419497f9722a3daafe3b4186f6b6457e060405160405180910390a35050565b600081519050919050565b7f4e487b7100000000000000000000000000000000000000000000000000000000600052604160045260246000fd5b7f4e487b7100000000000000000000000000000000000000000000000000000000600052602260045260246000fd5b6000600282049050600182168061027657607f821691505b6020821081036102895761028861022f565b5b50919050565b60008190508160005260206000209050919050565b60006020601f8301049050919050565b600082821b905092915050565b6000600883026102f17fffffffffffffffffffffffffffffffffffffffffffffffffffffffffffffffff826102b4565b6102fb86836102b4565b95508019841693508086168417925050509392505050565b6000819050919050565b6000819050919050565b600061034261033d61033884610313565b61031d565b610313565b9050919050565b6000819050919050565b61035c83610327565b61037061036882610349565b8484546102c1565b825550505050565b600090565b610385610378565b610390818484610353565b505050565b5b818110156103b4576103a960008261037d565b600181019050610396565b5050565b601f8211156103f9576103ca8161028f565b6103d3846102a4565b810160208510156103e2578190505b6103f66103ee856102a4565b830182610395565b50505b505050565b600082821c905092915050565b600061041c600019846008026103fe565b1980831691505092915050565b6000610435838361040b565b9150826002028217905092915050565b61044e826101f5565b67ffffffffffffffff81111561046757610466610200565b5b610471825461025e565b61047c8282856103b8565b600060209050601f8311600181146104af576000841561049d578287015190505b6104a78582610429565b86555061050f565b601f1984166104bd8661028f565b60005b828110156104e5578489015182556001820191506020850194506020810190506104c0565b8683101561050257848901516104fe601f89168261040b565b8355505b6001600288020188555050505b505050505050565b600073ffffffffffffffffffffffffffffffffffffffff82169050919050565b600061054282610517565b9050919050565b61055281610537565b82525050565b600060208201905061056d6000830184610549565b92915050565b612d43806105826000396000f3fe608060405234801561001057600080fd5b506004361061010b5760003560e01c8063715018a6116100a2578063a22cb46511610071578063a22cb465146102a6578063b88d4fde146102c2578063c87b56dd146102de578063e985e9c51461030e578063f2fde38b1461033e5761010b565b8063715018a6146102425780638a97ec2a1461024c5780638da5cb5b1461026a57806395d89b41146102885761010b565b806323b872dd116100de57806323b872dd146101aa57806342842e0e146101c65780636352211e146101e257806370a08231146102125761010b565b806301ffc9a71461011057806306fdde0314610140578063081812fc1461015e578063095ea7b31461018e575b600080fd5b61012a60048036038101906101259190611b6f565b61035a565b6040516101379190611bb7565b60405180910390f35b61014861043c565b6040516101559190611c62565b60405180910390f35b61017860048036038101906101739190611cba565b6104ce565b6040516101859190611d28565b60405180910390f35b6101a860048036038101906101a39190611d6f565b6104ea565b005b6101c460048036038101906101bf9190611daf565b610500565b005b6101e060048036038101906101db9190611daf565b610602565b005b6101fc60048036038101906101f79190611cba565b610622565b6040516102099190611d28565b60405180910390f35b61022c60048036038101906102279190611e02565b610634565b6040516102399190611e3e565b60405180910390f35b61024a6106ee565b005b610254610702565b6040516102619190611e3e565b60405180910390f35b61027261073e565b60405161027f9190611d28565b60405180910390f35b610290610768565b60405161029d9190611c62565b60405180910390f35b6102c060048036038101906102bb9190611e85565b6107fa565b005b6102dc60048036038101906102d79190611ffa565b610810565b005b6102f860048036038101906102f39190611cba565b610835565b6040516103059190611c62565b60405180910390f35b6103286004803603810190610323919061207d565b6108e8565b6040516103359190611bb7565b60405180910390f35b61035860048036038101906103539190611e02565b61097c565b005b60007f80ac58cd000000000000000000000000000000000000000000000000000000007bffffffffffffffffffffffffffffffffffffffffffffffffffffffff1916827bffffffffffffffffffffffffffffffffffffffffffffffffffffffff1916148061042557507f5b5e139f000000000000000000000000000000000000000000000000000000007bffffffffffffffffffffffffffffffffffffffffffffffffffffffff1916827bffffffffffffffffffffffffffffffffffffffffffffffffffffffff1916145b80610435575061043482610a02565b5b9050919050565b60606000805461044b906120ec565b80601f0160208091040260200160405190810160405280929190818152602001828054610477906120ec565b80156104c45780601f10610499576101008083540402835291602001916104c4565b820191906000526020600020905b8154815290600101906020018083116104a757829003601f168201915b5050505050905090565b60006104d982610a6c565b506104e382610af4565b9050919050565b6104fc82826104f7610b31565b610b39565b5050565b600073ffffffffffffffffffffffffffffffffffffffff168273ffffffffffffffffffffffffffffffffffffffff16036105725760006040517f64a0ae920000000000000000000000000000000000000000000000000000000081526004016105699190611d28565b60405180910390fd5b60006105868383610581610b31565b610b4b565b90508373ffffffffffffffffffffffffffffffffffffffff168173ffffffffffffffffffffffffffffffffffffffff16146105fc578382826040517f64283d7b0000000000000000000000000000000000000000000000000000000081526004016105f39392919061211d565b60405180910390fd5b50505050565b61061d83838360405180602001604052806000815250610810565b505050565b600061062d82610a6c565b9050919050565b60008073ffffffffffffffffffffffffffffffffffffffff168273ffffffffffffffffffffffffffffffffffffffff16036106a75760006040517f89c62b6400000000000000000000000000000000000000000000000000000000815260040161069e9190611d28565b60405180910390fd5b600360008373ffffffffffffffffffffffffffffffffffffffff1673ffffffffffffffffffffffffffffffffffffffff168152602001908152602001600020549050919050565b6106f6610d65565b6107006000610dec565b565b600061070c610d65565b6000600754905061071d3382610eb2565b6001600760008282546107309190612183565b925050819055508091505090565b6000600660009054906101000a900473ffffffffffffffffffffffffffffffffffffffff16905090565b606060018054610777906120ec565b80601f01602080910402602001604051908101604052809291908181526020018280546107a3906120ec565b80156107f05780601f106107c5576101008083540402835291602001916107f0565b820191906000526020600020905b8154815290600101906020018083116107d357829003601f168201915b5050505050905090565b61080c610805610b31565b8383610ed0565b5050565b61081b848484610500565b61082f610826610b31565b8585858561103f565b50505050565b60606000821161087a576040517f08c379a000000000000000000000000000000000000000000000000000000000815260040161087190612203565b60405180910390fd5b60006108be610888846111f0565b610899610894866112be565b61134b565b6040516020016108aa929190612427565b60405160208183030381529060405261134b565b9050806040516020016108d191906124ce565b604051602081830303815290604052915050919050565b6000600560008473ffffffffffffffffffffffffffffffffffffffff1673ffffffffffffffffffffffffffffffffffffffff16815260200190815260200160002060008373ffffffffffffffffffffffffffffffffffffffff1673ffffffffffffffffffffffffffffffffffffffff16815260200190815260200160002060009054906101000a900460ff16905092915050565b610984610d65565b600073ffffffffffffffffffffffffffffffffffffffff168173ffffffffffffffffffffffffffffffffffffffff16036109f65760006040517f1e4fbdf70000000000000000000000000000000000000000000000000000000081526004016109ed9190611d28565b60405180910390fd5b6109ff81610dec565b50565b60007f01ffc9a7000000000000000000000000000000000000000000000000000000007bffffffffffffffffffffffffffffffffffffffffffffffffffffffff1916827bffffffffffffffffffffffffffffffffffffffffffffffffffffffff1916149050919050565b600080610a7883611378565b9050600073ffffffffffffffffffffffffffffffffffffffff168173ffffffffffffffffffffffffffffffffffffffff1603610aeb57826040517f7e273289000000000000000000000000000000000000000000000000000000008152600401610ae29190611e3e565b60405180910390fd5b80915050919050565b60006004600083815260200190815260200160002060009054906101000a900473ffffffffffffffffffffffffffffffffffffffff169050919050565b600033905090565b610b4683838360016113b5565b505050565b600080610b5784611378565b9050600073ffffffffffffffffffffffffffffffffffffffff168373ffffffffffffffffffffffffffffffffffffffff1614610b9957610b9881848661157a565b5b600073ffffffffffffffffffffffffffffffffffffffff168173ffffffffffffffffffffffffffffffffffffffff1614610c2a57610bdb6000856000806113b5565b6001600360008373ffffffffffffffffffffffffffffffffffffffff1673ffffffffffffffffffffffffffffffffffffffff168152602001908152602001600020600082825403925050819055505b600073ffffffffffffffffffffffffffffffffffffffff168573ffffffffffffffffffffffffffffffffffffffff1614610cad576001600360008773ffffffffffffffffffffffffffffffffffffffff1673ffffffffffffffffffffffffffffffffffffffff168152602001908152602001600020600082825401925050819055505b846002600086815260200190815260200160002060006101000a81548173ffffffffffffffffffffffffffffffffffffffff021916908373ffffffffffffffffffffffffffffffffffffffff160217905550838573ffffffffffffffffffffffffffffffffffffffff168273ffffffffffffffffffffffffffffffffffffffff167fddf252ad1be2c89b69c2b068fc378daa952ba7f163c4a11628f55a4df523b3ef60405160405180910390a4809150509392505050565b610d6d610b31565b73ffffffffffffffffffffffffffffffffffffffff16610d8b61073e565b73ffffffffffffffffffffffffffffffffffffffff1614610dea57610dae610b31565b6040517f118cdaa7000000000000000000000000000000000000000000000000000000008152600401610de19190611d28565b60405180910390fd5b565b6000600660009054906101000a900473ffffffffffffffffffffffffffffffffffffffff16905081600660006101000a81548173ffffffffffffffffffffffffffffffffffffffff021916908373ffffffffffffffffffffffffffffffffffffffff1602179055508173ffffffffffffffffffffffffffffffffffffffff168173ffffffffffffffffffffffffffffffffffffffff167f8be0079c531659141344cd1fd0a4f28419497f9722a3daafe3b4186f6b6457e060405160405180910390a35050565b610ecc82826040518060200160405280600081525061163e565b5050565b600073ffffffffffffffffffffffffffffffffffffffff168273ffffffffffffffffffffffffffffffffffffffff1603610f4157816040517f5b08ba18000000000000000000000000000000000000000000000000000000008152600401610f389190611d28565b60405180910390fd5b80600560008573ffffffffffffffffffffffffffffffffffffffff1673ffffffffffffffffffffffffffffffffffffffff16815260200190815260200160002060008473ffffffffffffffffffffffffffffffffffffffff1673ffffffffffffffffffffffffffffffffffffffff16815260200190815260200160002060006101000a81548160ff0219169083151502179055508173ffffffffffffffffffffffffffffffffffffffff168373ffffffffffffffffffffffffffffffffffffffff167f17307eab39ab6107e8899845ad3d59bd9653f200f220920489ca2b5937696c31836040516110329190611bb7565b60405180910390a3505050565b60008373ffffffffffffffffffffffffffffffffffffffff163b11156111e9578273ffffffffffffffffffffffffffffffffffffffff1663150b7a02868685856040518563ffffffff1660e01b815260040161109e9493929190612545565b6020604051808303816000875af19250505080156110da57506040513d601f19601f820116820180604052508101906110d791906125a6565b60015b61115e573d806000811461110a576040519150601f19603f3d011682016040523d82523d6000602084013e61110f565b606091505b50600081510361115657836040517f64a0ae9200000000000000000000000000000000000000000000000000000000815260040161114d9190611d28565b60405180910390fd5b805181602001fd5b63150b7a0260e01b7bffffffffffffffffffffffffffffffffffffffffffffffffffffffff1916817bffffffffffffffffffffffffffffffffffffffffffffffffffffffff1916146111e757836040517f64a0ae920000000000000000000000000000000000000000000000000000000081526004016111de9190611d28565b60405180910390fd5b505b5050505050565b6060600060016111ff84611662565b01905060008167ffffffffffffffff81111561121e5761121d611ecf565b5b6040519080825280601f01601f1916602001820160405280156112505781602001600182028036833780820191505090505b509050600082602001820190505b6001156112b3578080600190039150507f3031323334353637383961626364656600000000000000000000000000000000600a86061a8153600a85816112a7576112a66125d3565b5b0494506000850361125e575b819350505050919050565b6060600060939050600060709050600060db90506000602290506000608b90506000602290506112ed866111f0565b6112f6866111f0565b6112ff866111f0565b611308866111f0565b611311866111f0565b61131a866111f0565b60405160200161132f96959493929190612b34565b6040516020818303038152906040529650505050505050919050565b606061137182604051806060016040528060408152602001612cce6040913960016117b5565b9050919050565b60006002600083815260200190815260200160002060009054906101000a900473ffffffffffffffffffffffffffffffffffffffff169050919050565b80806113ee5750600073ffffffffffffffffffffffffffffffffffffffff168273ffffffffffffffffffffffffffffffffffffffff1614155b156115225760006113fe84610a6c565b9050600073ffffffffffffffffffffffffffffffffffffffff168373ffffffffffffffffffffffffffffffffffffffff161415801561146957508273ffffffffffffffffffffffffffffffffffffffff168173ffffffffffffffffffffffffffffffffffffffff1614155b801561147c575061147a81846108e8565b155b156114be57826040517fa9fbf51f0000000000000000000000000000000000000000000000000000000081526004016114b59190611d28565b60405180910390fd5b811561152057838573ffffffffffffffffffffffffffffffffffffffff168273ffffffffffffffffffffffffffffffffffffffff167f8c5be1e5ebec7d5bd14f71427d1e84f3dd0314c0f7b2291e5b200ac8c7c3b92560405160405180910390a45b505b836004600085815260200190815260200160002060006101000a81548173ffffffffffffffffffffffffffffffffffffffff021916908373ffffffffffffffffffffffffffffffffffffffff16021790555050505050565b611585838383611949565b61163957600073ffffffffffffffffffffffffffffffffffffffff168373ffffffffffffffffffffffffffffffffffffffff16036115fa57806040517f7e2732890000000000000000000000000000000000000000000000000000000081526004016115f19190611e3e565b60405180910390fd5b81816040517f177e802f000000000000000000000000000000000000000000000000000000008152600401611630929190612c31565b60405180910390fd5b505050565b6116488383611a0a565b61165d611653610b31565b600085858561103f565b505050565b600080600090507a184f03e93ff9f4daa797ed6e38ed64bf6a1f01000000000000000083106116c0577a184f03e93ff9f4daa797ed6e38ed64bf6a1f01000000000000000083816116b6576116b56125d3565b5b0492506040810190505b6d04ee2d6d415b85acef810000000083106116fd576d04ee2d6d415b85acef810000000083816116f3576116f26125d3565b5b0492506020810190505b662386f26fc10000831061172c57662386f26fc100008381611722576117216125d3565b5b0492506010810190505b6305f5e1008310611755576305f5e100838161174b5761174a6125d3565b5b0492506008810190505b612710831061177a5761271083816117705761176f6125d3565b5b0492506004810190505b6064831061179d5760648381611793576117926125d3565b5b0492506002810190505b600a83106117ac576001810190505b80915050919050565b606060008451036117d757604051806020016040528060008152509050611942565b6000826118095760036002865160046117f09190612c5a565b6117fa9190612183565b6118049190612c9c565b611830565b6003600286516118199190612183565b6118239190612c9c565b600461182f9190612c5a565b5b905060008167ffffffffffffffff81111561184e5761184d611ecf565b5b6040519080825280601f01601f1916602001820160405280156118805781602001600182028036833780820191505090505b50905060018501602082018788518901602081018051600082525b828410156118f6576003840193508351603f8160121c168701518653600186019550603f81600c1c168701518653600186019550603f8160061c168701518653600186019550603f811687015186536001860195505061189b565b80825289156119365760038c510660018114611919576002811461192c57611934565b603d6001870353603d6002870353611934565b603d60018703535b505b50505050505080925050505b9392505050565b60008073ffffffffffffffffffffffffffffffffffffffff168373ffffffffffffffffffffffffffffffffffffffff1614158015611a0157508273ffffffffffffffffffffffffffffffffffffffff168473ffffffffffffffffffffffffffffffffffffffff1614806119c257506119c184846108e8565b5b80611a0057508273ffffffffffffffffffffffffffffffffffffffff166119e883610af4565b73ffffffffffffffffffffffffffffffffffffffff16145b5b90509392505050565b600073ffffffffffffffffffffffffffffffffffffffff168273ffffffffffffffffffffffffffffffffffffffff1603611a7c5760006040517f64a0ae92000000000000000000000000000000000000000000000000000000008152600401611a739190611d28565b60405180910390fd5b6000611a8a83836000610b4b565b9050600073ffffffffffffffffffffffffffffffffffffffff168173ffffffffffffffffffffffffffffffffffffffff1614611afe5760006040517f73c6ac6e000000000000000000000000000000000000000000000000000000008152600401611af59190611d28565b60405180910390fd5b505050565b6000604051905090565b600080fd5b600080fd5b60007fffffffff0000000000000000000000000000000000000000000000000000000082169050919050565b611b4c81611b17565b8114611b5757600080fd5b50565b600081359050611b6981611b43565b92915050565b600060208284031215611b8557611b84611b0d565b5b6000611b9384828501611b5a565b91505092915050565b60008115159050919050565b611bb181611b9c565b82525050565b6000602082019050611bcc6000830184611ba8565b92915050565b600081519050919050565b600082825260208201905092915050565b60005b83811015611c0c578082015181840152602081019050611bf1565b60008484015250505050565b6000601f19601f8301169050919050565b6000611c3482611bd2565b611c3e8185611bdd565b9350611c4e818560208601611bee565b611c5781611c18565b840191505092915050565b60006020820190508181036000830152611c7c8184611c29565b905092915050565b6000819050919050565b611c9781611c84565b8114611ca257600080fd5b50565b600081359050611cb481611c8e565b92915050565b600060208284031215611cd057611ccf611b0d565b5b6000611cde84828501611ca5565b91505092915050565b600073ffffffffffffffffffffffffffffffffffffffff82169050919050565b6000611d1282611ce7565b9050919050565b611d2281611d07565b82525050565b6000602082019050611d3d6000830184611d19565b92915050565b611d4c81611d07565b8114611d5757600080fd5b50565b600081359050611d6981611d43565b92915050565b60008060408385031215611d8657611d85611b0d565b5b6000611d9485828601611d5a565b9250506020611da585828601611ca5565b9150509250929050565b600080600060608486031215611dc857611dc7611b0d565b5b6000611dd686828701611d5a565b9350506020611de786828701611d5a565b9250506040611df886828701611ca5565b9150509250925092565b600060208284031215611e1857611e17611b0d565b5b6000611e2684828501611d5a565b91505092915050565b611e3881611c84565b82525050565b6000602082019050611e536000830184611e2f565b92915050565b611e6281611b9c565b8114611e6d57600080fd5b50565b600081359050611e7f81611e59565b92915050565b60008060408385031215611e9c57611e9b611b0d565b5b6000611eaa85828601611d5a565b9250506020611ebb85828601611e70565b9150509250929050565b600080fd5b600080fd5b7f4e487b7100000000000000000000000000000000000000000000000000000000600052604160045260246000fd5b611f0782611c18565b810181811067ffffffffffffffff82111715611f2657611f25611ecf565b5b80604052505050565b6000611f39611b03565b9050611f458282611efe565b919050565b600067ffffffffffffffff821115611f6557611f64611ecf565b5b611f6e82611c18565b9050602081019050919050565b82818337600083830152505050565b6000611f9d611f9884611f4a565b611f2f565b905082815260208101848484011115611fb957611fb8611eca565b5b611fc4848285611f7b565b509392505050565b600082601f830112611fe157611fe0611ec5565b5b8135611ff1848260208601611f8a565b91505092915050565b6000806000806080858703121561201457612013611b0d565b5b600061202287828801611d5a565b945050602061203387828801611d5a565b935050604061204487828801611ca5565b925050606085013567ffffffffffffffff81111561206557612064611b12565b5b61207187828801611fcc565b91505092959194509250565b6000806040838503121561209457612093611b0d565b5b60006120a285828601611d5a565b92505060206120b385828601611d5a565b9150509250929050565b7f4e487b7100000000000000000000000000000000000000000000000000000000600052602260045260246000fd5b6000600282049050600182168061210457607f821691505b602082108103612117576121166120bd565b5b50919050565b60006060820190506121326000830186611d19565b61213f6020830185611e2f565b61214c6040830184611d19565b949350505050565b7f4e487b7100000000000000000000000000000000000000000000000000000000600052601160045260246000fd5b600061218e82611c84565b915061219983611c84565b92508282019050808211156121b1576121b0612154565b5b92915050565b7f55524920717565727920666f72206e6f6e6578697374656e7420746f6b656e00600082015250565b60006121ed601f83611bdd565b91506121f8826121b7565b602082019050919050565b6000602082019050818103600083015261221c816121e0565b9050919050565b600081905092915050565b7f7b226e616d65223a20224b4f444544204e46542d2d0000000000000000000000600082015250565b6000612264601583612223565b915061226f8261222e565b601582019050919050565b600061228582611bd2565b61228f8185612223565b935061229f818560208601611bee565b80840191505092915050565b7f222c000000000000000000000000000000000000000000000000000000000000600082015250565b60006122e1600283612223565b91506122ec826122ab565b600282019050919050565b7f226465736372697074696f6e223a202254686973206973206120546f6b656e2060008201527f666f722074686520427261766520616e6420436f6e666964656e74222c000000602082015250565b6000612353603d83612223565b915061235e826122f7565b603d82019050919050565b7f22696d616765223a2022646174613a696d6167652f7376672b786d6c3b62617360008201527f6536342c00000000000000000000000000000000000000000000000000000000602082015250565b60006123c5602483612223565b91506123d082612369565b602482019050919050565b7f227d000000000000000000000000000000000000000000000000000000000000600082015250565b6000612411600283612223565b915061241c826123db565b600282019050919050565b600061243282612257565b915061243e828561227a565b9150612449826122d4565b915061245482612346565b915061245f826123b8565b915061246b828461227a565b915061247682612404565b91508190509392505050565b7f646174613a6170706c69636174696f6e2f6a736f6e3b6261736536342c000000600082015250565b60006124b8601d83612223565b91506124c382612482565b601d82019050919050565b60006124d9826124ab565b91506124e5828461227a565b915081905092915050565b600081519050919050565b600082825260208201905092915050565b6000612517826124f0565b61252181856124fb565b9350612531818560208601611bee565b61253a81611c18565b840191505092915050565b600060808201905061255a6000830187611d19565b6125676020830186611d19565b6125746040830185611e2f565b8181036060830152612586818461250c565b905095945050505050565b6000815190506125a081611b43565b92915050565b6000602082840312156125bc576125bb611b0d565b5b60006125ca84828501612591565b91505092915050565b7f4e487b7100000000000000000000000000000000000000000000000000000000600052601260045260246000fd5b7f3c7376672077696474683d2733303027206865696768743d273330302720786d60008201527f6c6e733d27687474703a2f2f7777772e77332e6f72672f323030302f7376672760208201527f3e00000000000000000000000000000000000000000000000000000000000000604082015250565b6000612684604183612223565b915061268f82612602565b604182019050919050565b7f3c7374796c653e2074657874207b7061696e742d6f726465723a207374726f6b60008201527f653b207374726f6b653a20626c75653b207374726f6b652d77696474683a203260208201527f70783b2066696c6c3a2077686974653b20746578742d616e63686f723a206d6960408201527f64646c653b20646f6d696e616e742d626173656c696e653a2063656e7472616c60608201527f3b7d3c2f7374796c653e00000000000000000000000000000000000000000000608082015250565b6000612768608a83612223565b91506127738261269a565b608a82019050919050565b7f3c646566733e3c6c696e6561724772616469656e742069643d2767726164696560008201527f6e74272078313d273025272078323d2731303025272079313d2730252720793260208201527f3d273025273e0000000000000000000000000000000000000000000000000000604082015250565b6000612800604683612223565b915061280b8261277e565b604682019050919050565b7f3c73746f70206f66667365743d27302527207374796c653d2773746f702d636f60008201527f6c6f723a72676228000000000000000000000000000000000000000000000000602082015250565b6000612872602883612223565b915061287d82612816565b602882019050919050565b7f2c00000000000000000000000000000000000000000000000000000000000000600082015250565b60006128be600183612223565b91506128c982612888565b600182019050919050565b7f2927202f3e000000000000000000000000000000000000000000000000000000600082015250565b600061290a600583612223565b9150612915826128d4565b600582019050919050565b7f3c73746f70206f66667365743d273130302527207374796c653d2773746f702d60008201527f636f6c6f723a7267622800000000000000000000000000000000000000000000602082015250565b600061297c602a83612223565b915061298782612920565b602a82019050919050565b7f3c2f6c696e6561724772616469656e743e3c2f646566733e0000000000000000600082015250565b60006129c8601883612223565b91506129d382612992565b601882019050919050565b7f3c726563742077696474683d273130302527206865696768743d27313030252760008201527f2066696c6c3d2775726c28236772616469656e742927202f3e00000000000000602082015250565b6000612a3a603983612223565b9150612a45826129de565b603982019050919050565b7f3c7465787420783d273135302720793d273135302720666f6e742d66616d696c60008201527f793d27417269616c2720666f6e742d73697a653d2733322720666f6e742d776560208201527f696768743d27626f6c64273e4b6f6465444170703c2f746578743e0000000000604082015250565b6000612ad2605b83612223565b9150612add82612a50565b605b82019050919050565b7f3c2f7376673e0000000000000000000000000000000000000000000000000000600082015250565b6000612b1e600683612223565b9150612b2982612ae8565b600682019050919050565b6000612b3f82612677565b9150612b4a8261275b565b9150612b55826127f3565b9150612b6082612865565b9150612b6c828961227a565b9150612b77826128b1565b9150612b83828861227a565b9150612b8e826128b1565b9150612b9a828761227a565b9150612ba5826128fd565b9150612bb08261296f565b9150612bbc828661227a565b9150612bc7826128b1565b9150612bd3828561227a565b9150612bde826128b1565b9150612bea828461227a565b9150612bf5826128fd565b9150612c00826129bb565b9150612c0b82612a2d565b9150612c1682612ac5565b9150612c2182612b11565b9150819050979650505050505050565b6000604082019050612c466000830185611d19565b612c536020830184611e2f565b9392505050565b6000612c6582611c84565b9150612c7083611c84565b9250828202612c7e81611c84565b91508282048414831517612c9557612c94612154565b5b5092915050565b6000612ca782611c84565b9150612cb283611c84565b925082612cc257612cc16125d3565b5b82820490509291505056fe4142434445464748494a4b4c4d4e4f505152535455565758595a6162636465666768696a6b6c6d6e6f707172737475767778797a303132333435363738392b2fa26469706673582212204051e7395d8781a8aad417e39a40b37037d718ea57c4011bf5656511f207883d64736f6c634300081c0033",
  "linkReferences": {},
  "deployedLinkReferences": {}
}